{
  "contractName": "TodoList",
  "abi": [
    {
      "constant": true,
      "inputs": [
        {
          "name": "",
          "type": "uint256"
        }
      ],
      "name": "tasks",
      "outputs": [
        {
          "name": "id",
          "type": "uint256"
        },
        {
          "name": "content",
          "type": "string"
        },
        {
          "name": "completed",
          "type": "bool"
        }
      ],
      "payable": false,
      "stateMutability": "view",
      "type": "function",
      "signature": "0x8d977672"
    },
    {
      "constant": true,
      "inputs": [],
      "name": "taskCount",
      "outputs": [
        {
          "name": "",
          "type": "uint256"
        }
      ],
      "payable": false,
      "stateMutability": "view",
      "type": "function",
      "signature": "0xb6cb58a5"
    },
    {
      "inputs": [],
      "payable": false,
      "stateMutability": "nonpayable",
      "type": "constructor",
      "signature": "constructor"
    },
    {
      "constant": false,
      "inputs": [
        {
          "name": "_content",
          "type": "string"
        }
      ],
      "name": "createTask",
      "outputs": [],
      "payable": false,
      "stateMutability": "nonpayable",
      "type": "function",
      "signature": "0x111002aa"
    },
    {
      "constant": false,
      "inputs": [
        {
          "name": "_id",
          "type": "uint256"
        }
      ],
      "name": "deleteTask",
      "outputs": [],
      "payable": false,
      "stateMutability": "nonpayable",
      "type": "function",
      "signature": "0x560f3192"
    }
  ],
  "bytecode": "0x60806040526000805534801561001457600080fd5b50610089606060405190810160405280602c81526020017f48656c6c6f2120546869732069732061206e6577207461736b20696e20796f7581526020017f7220546f2d446f206c697374000000000000000000000000000000000000000081525061008e640100000000026401000000009004565b610195565b60008054600190810180835560408051606081018252828152602080820187815282840187905293865284815291909420845181559151805192936100db939085019291909101906100fa565b50604091909101516002909101805460ff191691151591909117905550565b828054600181600116156101000203166002900490600052602060002090601f016020900481019282601f1061013b57805160ff1916838001178555610168565b82800160010185558215610168579182015b8281111561016857825182559160200191906001019061014d565b50610174929150610178565b5090565b61019291905b80821115610174576000815560010161017e565b90565b6104ff806101a46000396000f3fe6080604052600436106100615763ffffffff7c0100000000000000000000000000000000000000000000000000000000600035041663111002aa8114610066578063560f31921461011b5780638d97767214610145578063b6cb58a5146101f9575b600080fd5b34801561007257600080fd5b506101196004803603602081101561008957600080fd5b8101906020810181356401000000008111156100a457600080fd5b8201836020820111156100b657600080fd5b803590602001918460018302840111640100000000831117156100d857600080fd5b91908080601f016020809104026020016040519081016040528093929190818152602001838380828437600092019190915250929550610220945050505050565b005b34801561012757600080fd5b506101196004803603602081101561013e57600080fd5b503561028c565b34801561015157600080fd5b5061016f6004803603602081101561016857600080fd5b503561030e565b604051808481526020018060200183151515158152602001828103825284818151815260200191508051906020019080838360005b838110156101bc5781810151838201526020016101a4565b50505050905090810190601f1680156101e95780820380516001836020036101000a031916815260200191505b5094505050505060405180910390f35b34801561020557600080fd5b5061020e6103bd565b60408051918252519081900360200190f35b600080546001908101808355604080516060810182528281526020808201878152828401879052938652848152919094208451815591518051929361026d939085019291909101906103c3565b50604091909101516002909101805460ff191691151591909117905550565b805b6000548110156103005760018181016000908152602082905260408082208483529120815481558183018054929391926102dc92848101929160029181161561010002600019011604610441565b506002918201549101805460ff191660ff909216151591909117905560010161028e565b505060008054600019019055565b600160208181526000928352604092839020805481840180548651600296821615610100026000190190911695909504601f810185900485028601850190965285855290949193929091908301828280156103aa5780601f1061037f576101008083540402835291602001916103aa565b820191906000526020600020905b81548152906001019060200180831161038d57829003601f168201915b5050506002909301549192505060ff1683565b60005481565b828054600181600116156101000203166002900490600052602060002090601f016020900481019282601f1061040457805160ff1916838001178555610431565b82800160010185558215610431579182015b82811115610431578251825591602001919060010190610416565b5061043d9291506104b6565b5090565b828054600181600116156101000203166002900490600052602060002090601f016020900481019282601f1061047a5780548555610431565b8280016001018555821561043157600052602060002091601f016020900482015b8281111561043157825482559160010191906001019061049b565b6104d091905b8082111561043d57600081556001016104bc565b9056fea165627a7a723058209f5fc1fcb1e77396ec666a86e818583f588ff793b82c4b336be771892699cde20029",
  "source": "pragma solidity ^0.5.0;\n\ncontract TodoList {\n    uint256 public taskCount = 0;\n\n    struct Task {\n        uint256 id;\n        string content;\n        bool completed;\n    }\n\n    mapping(uint256 => Task) public tasks;\n\n    constructor() public {\n        createTask(\"Hello! This is a new task in your To-Do list\");\n    }\n\n    function createTask(string memory _content) public {\n        taskCount++;\n        tasks[taskCount] = Task(taskCount, _content, false);\n    }\n\n    function deleteTask(uint256 _id) public {\n        for (uint256 i = _id; i < taskCount; i++) {\n            tasks[i] = tasks[i + 1];\n        }\n        taskCount--;\n    }\n}\n",
  "sourcePath": "/Users/hoangnguyen/projects/eth-todo-list/contracts/TodoList.sol",
  "compiler": {
    "name": "solc",
    "version": "0.5.0+commit.1d4f565a.Emscripten.clang"
  },
  "schemaVersion": "3.0.1",
  "updatedAt": "2022-02-18T07:43:19.793Z",
  "devdoc": {
    "methods": {}
  },
  "userdoc": {
    "methods": {}
  }
}